:04000000FEEF3FF0E0
:10060000004375696461646F212025326473202082
:10061000006369636C6F206E6F726D616C2E2E2E9D
:100620000054656D706F3A202532647320202000DD
:100630004D4F444F20504544455354524500526558
:10064000746F726E616E646F20616F00496E6963D2
:1006500069616E646F2E2E2E00436F6D20626F7481
:100660006F6569726100507261746963612030372F
:100670003A0053494E414C2056455244450041549E
:10068000454E43414F2E2E2E0041747261766573A4
:100690007361720050415245000021EC08F0F80EE1
:1006A000946E826A9380F19E0F0EC16E07EC09F082
:1006B000000E066E010EA4EC08F0660E076E0750E1
:1006C000D8A4060E086EF2EC07F0000E066E020EBD
:1006D000A4EC08F0590E076E0750D8A4060E086E59
:1006E000F2EC07F0330E666EBB0E656EE00EE82E80
:1006F000FED7652EFCD7662EFAD78290829282941E
:1007000007EC09F0000E066E010EA4EC08F04C0E8A
:10071000076E0750D8A4060E086EF2EC07F0050E1F
:100720003DEC07F00009D8B498EF03F09AEF03F01E
:100730009CEF03F07DEF03F082808292829407ECBD
:1007400009F0000E066E010EA4EC08F0720E076EA2
:100750000750D8A4060E086EF2EC07F00A0E3DEC26
:1007600007F00009D8B4B7EF03F0B9EF03F0BBEF1F
:1007700003F07DEF03F082908282829407EC09F00F
:10078000000E066E010EA4EC08F07E0E076E0750F8
:10079000D8A4060E086EF2EC07F0030E3DEC07F04D
:1007A0000009D8B4D6EF03F0D8EF03F0DAEF03F086
:1007B0007DEF03F082908292828407EC09F0000EB4
:1007C000066E010EA4EC08F0940E076E0750D8A434
:1007D000060E086EF2EC07F00A0E3DEC07F07DEF16
:1007E00003F0FEEF3FF0010E1C6E17BEFAEF03F0B0
:1007F000FDEF03F0010EFEEF03F0000E1D6E67C06B
:100800001AF068C01BF01D50D8B409EF04F00BEFCC
:1008100004F020EF04F01A06D8A01B061D50D8A43F
:1008200014EF04F016EF04F01BEF04F0196A2B0E1E
:10083000186E1EEF04F0196A2D0E186E18C01DF008
:100840001F6A1F0E1E6E00019F6B51EF04F01E0603
:10085000D8A01F061E50800FD96EDA6A16C001F0AC
:1008600017C002F0046A0A0E036EF6EC05F001C030
:1008700007F002C008F08AEC08F00750300FDF6E76
:100880001C6A1A06D8A01B0616C001F017C002F099
:10089000046A0A0E036E96EC05F001C016F002C061
:1008A00017F01FBE5CEF04F01F5008E11E04D8A033
:1008B0005CEF04F05EEF04F06FEF04F016501710D9
:1008C000D8A465EF04F067EF04F027EF04F01C50A4
:1008D000D8A46DEF04F06FEF04F027EF04F01D5083
:1008E000D8B475EF04F077EF04F080EF04F01E0643
:1008F000D8A01F061E50800FD96EDA6A1DC0DFFF18
:1009000015C00EF01E50800F0F6E1AC010F01BC0E5
:1009100011F080EC07F012002150D96EDA6ADFCFB7
:10092000F6FF060EF76E0800F550250AD8A49BEFD7
:1009300004F09DEF04F000EF05F02150D96EDA6A63
:10094000DF2A686A000E676E67C06BF069686A68C4
:1009500021C001F022C002F0A2EC06F001C067F055
:1009600002C068F068BEB9EF04F0B7EF04F0BEEF64
:1009700004F06B80676C681ED8B0682A2150D96E6D
:10098000DA6ADF50276E27C0F6FF060EF76E080002
:10099000F550640AD8B4CFEF04F0D1EF04F0DFEFE4
:1009A00004F027C0F6FF060EF76E0800F550690A3E
:1009B000D8A4DDEF04F0DFEF04F0FAEF04F02250EA
:1009C000D96EDA6A020EDF26DF5CD96EDA6ADECF14
:1009D00023F0DECF24F02150D96EDA6A2728DF6EAB
:1009E00020C015F023C016F024C017F0F3EC03F07C
:1009F00011EF05F02150D96EDA6ADF2A11EF05F008
:100A00002150D96EDA6ADFCFF6FF060EF76E0800C6
:100A1000F550016E026A20C003F04DEC06F0FAEFCB
:100A200004F0120082908292828407EC09F0000E9A
:100A3000066E010EA4EC08F0300E076E0750D8A425
:100A4000060E086EF2EC07F0000E066E020EA4EC25
:100A500008F0890E076E0750D8A4060E086EF2EC57
:100A600007F0270E3D6E0D0E3C6E260EE82EFED7CB
:100A70003C2EFCD73D2EFAD700D04F6A0A0E4E6EA0
:100A8000000E066E020EA4EC08F03E0E2C6E010E57
:100A90002D6E4EC02EF04FC02FF0BDEC08F03E0E74
:100AA000076E086AF2EC07F01A0E3D6E5E0E3C6EA1
:100AB0006E0EE82EFED73C2EFCD73D2EFAD700D086
:100AC0004E06D8A04F064FBE6AEF05F068EF05F05E
:100AD00040EF05F007EC09F0000E066E010EA4ECE5
:100AE00008F03E0E076E0750D8A4060E086EF2EC12
:100AF00007F0000E066E020EA4EC08F0110E076E51
:100B00000750D8A4060E086EF2EC07F0270E3D6ED3
:100B10000D0E3C6E260EE82EFED73C2EFCD73D2E49
:100B2000FAD700D08290829282941200066A04BEA4
:100B30009EEF05F09CEF05F0A4EF05F0036C041E9A
:100B4000D8B0042A010E066E02BEABEF05F0A9EF85
:100B500005F0B1EF05F0016C021ED8B0022A010EBB
:100B6000061A086A000E076E03500410D8B4BBEFD3
:100B700005F0BDEF05F0E5EF05F0010E056EC5EFE0
:100B800005F0D89003360436052A04AECAEF05F006
:100B9000CCEF05F0C1EF05F0D890073608360350CA
:100BA000015C04500258D8A0D8EF05F0DAEF05F048
:100BB000DFEF05F00350015E0450025A0780D89021
:100BC00004320332052ECCEF05F00650D8B4EBEF1B
:100BD00005F0EDEF05F0F1EF05F0076C081ED8B059
:100BE000082A07C001F008C002F01200066A02BE1F
:100BF000FEEF05F0FCEF05F004EF06F0016C021EBD
:100C0000D8B0022A010E066E04BE0BEF06F009EF03
:100C100006F00FEF06F0036C041ED8B0042A035050
:100C20000410D8B416EF06F018EF06F03CEF06F00B
:100C3000010E056E20EF06F0D89003360436052A23
:100C400004AE25EF06F027EF06F01CEF06F0035088
:100C5000015C04500258D8A030EF06F032EF06F0E5
:100C600036EF06F00350015E0450025AD890043269
:100C70000332052E27EF06F00650D8B442EF06F0F7
:100C800044EF06F048EF06F0016C021ED8B0022ACD
:100C900001C001F002C002F012000350D8B453EFBB
:100CA00006F055EF06F05DEF06F00350D8A45BEFB9
:100CB00006F05DEF06F062EF06F0015017EC09F068
:100CC000A1EF06F00350D96EDA6A090ED926DE507C
:100CD000DE10D8B46EEF06F070EF06F089EF06F084
:100CE0000350D96EDA6A090ED9260350E16EE26A22
:100CF000020EE126DE50E65CE650800A086EDE5009
:100D0000800A0858D8B087EF06F089EF06F0A1EF07
:100D100006F00350D96EDA6A020ED926DF50046E4F
:100D20000350D96EDA6ADF500424D96EDA6A01C042
:100D3000DFFF0350D96EDA6A020ED926DE2A000ED2
:100D4000DD221200076A000E066E0150D96EDA6AC3
:100D5000DFCFF6FF060EF76E0800F5502A0AD8A47A
:100D6000B4EF06F0B6EF06F0DBEF06F00150D96EF7
:100D7000DA6ADF2A0250D96EDA6A020EDF26DF5CF9
:100D8000D96EDA6ADECF06F0DECF07F0EEEF06F0BE
:100D90000A0E0602F3CF03F0F4CF04F00702F3507B
:100DA000042605500324066E000E0420076E015031
:100DB000D96EDA6ADF2A0150D96EDA6ADFCFF6FF20
:100DC000060EF76E0800F550D00F056E090E05648B
:100DD000ECEF06F0EEEF06F0C8EF06F006C001F00B
:100DE00007C002F01200036E03C001F0013A0F0EBB
:100DF0000116010E0116013A83500118EF0B01187C
:100E0000836E03C001F0050E026ED8900132022EEF
:100E100005EF07F0010E0116013A01468350011853
:100E2000DF0B0118836E03C001F0060E026ED8902E
:100E30000132022E17EF07F0010E0116013A0146AA
:100E4000014683500118BF0B0118836E016A03AE7F
:100E500001D0012A010E011601320132835001181E
:100E60007F0B0118836E838200D000D00000839234
:100E7000A60EE82EFED700D01200626E62C063F0AC
:100E8000646A64BE48EF07F046EF07F04AEF07F0E8
:100E90007EEF07F0C2EC07F00009D8B452EF07F07C
:100EA00054EF07F059EF07F012EC05F0010E7FEF59
:100EB00007F0000E066E020EA4EC08F0520E2C6E27
:100EC000210E2D6E63C02EF064C02FF0BDEC08F033
:100ED000520E076E086AF2EC07F01A0E516E5E0EA3
:100EE000506E6E0EE82EFED7502EFCD7512EFAD73C
:100EF00000D06306D8A0640641EF07F0000E120090
:100F00006BA085EF07F087EF07F08DEF07F00FC0BC
:100F100009F00EC00AF06DEC08F011BE94EF07F076
:100F200092EF07F097EF07F0116A000E106E146A47
:100F3000000E136EA5EF07F0026A200E016E0EC0C0
:100F400003F04DEC06F0134A142A1050135C1450B1
:100F5000800A126E1150800A1258D8A0B2EF07F022
:100F6000B4EF07F09CEF07F06BB0B9EF07F0BBEF01
:100F700007F0C1EF07F00FC009F00EC00AF06DECEA
:100F800008F0120081B0C7EF07F0C9EF07F0F0EFEB
:100F900007F0020E026E450E016EAA0EE82EFED775
:100FA000012EFCD7022EFAD781B0D9EF07F0DBEF84
:100FB00007F0F0EF07F081A0E0EF07F0E2EF07F0B5
:100FC000DBEF07F0020E026E450E016EAA0EE82E50
:100FD000FED7012EFCD7022EFAD7010EF1EF07F053
:100FE000000E120008EF08F007C0F6FF08C0F7FF78
:100FF000F86A050EF76403D00800F55005D0F6CF67
:10100000E1FFF7CFE2FFE75012EC09F0074A082AA8
:1010100007C0F6FF08C0F7FFF86A050EF76403D0B3
:101020000800F55005D0F6CFE1FFF7CFE2FFE7501B
:101030000009D8A41EEF08F020EF08F0F4EF07F045
:101040001200956A836A83928390820E076EDE0E89
:10105000E82EFED7072EFCD7300EF3EC06F0210E5B
:10106000076E760EE82EFED7072EFCD700D0300E86
:10107000F3EC06F0FA0EE82EFED7300EF3EC06F095
:10108000200EF3EC06F0280EE6EC08F00C0EE6EC71
:1010900008F0060EE6EC08F007EC09F0120029C093
:1010A0002BF05BEF08F028C020F02B0E216E2AC039
:1010B00022F08CEC04F02BC0F6FF060EF76E080051
:1010C000F5500009D8A467EF08F069EF08F053EF76
:1010D00008F0296A000E286E12000D6A000E0C6ED0
:1010E0007BEF08F00BC001F0026A0AC003F04DEC80
:1010F00006F00C4A0D2A09500C24D96EDA6ADF502A
:101100000B6E0B50D8A487EF08F089EF08F072EF50
:1011100008F0120008BE8FEF08F091EF08F097EF8B
:1011200008F007C007F008C008F0A3EF08F007C0F8
:1011300009F008C00AF0091E0A1E094A0A2A09C055
:1011400007F00AC008F01200076E0704D8B4ABEF2E
:1011500008F0ADEF08F0B2EF08F0096AC00E086EB3
:10116000B5EF08F0096A800E086E08C00AF0065054
:101170000A260A50E6EC08F012002E0E306E2CC043
:1011800031F0346A000E336E3B6A000E3A6E310E57
:10119000286E2DC029F0300E2A6E4FEC08F02C502E
:1011A0003324D96EDA6ADF6A1200056E8380055037
:1011B000F3EC06F00538F00BF3EC06F00D0E046EC0
:1011C000FC0EE82EFED7042EFCD71200056E83908D
:1011D0000550F3EC06F00538F00BF3EC06F00D0EBD
:1011E000046EFC0EE82EFED7042EFCD7120000EE93
:1011F00080F0200EEE6AE806FDE16B6A6A6A696AB1
:10120000686A676A000EF86E00014DEF03F0010E88
:10121000E6EC08F00D0E066EFC0EE82EFED7062E4C
:10122000FCD71200066E0650D5EC08F01200120032
:047FFC00F7EF08F0A3
:00000001FF
